01REMESSA01COBRANCA       0000 00000000 000000                              001Banco do Brasil0000000000001                      0000000                                                                                                                                                                                                                                                                  000001
100000000000000001235 0007642800000000ALIANCA QUITACAO E NEGOCI000000000000000010000       000                 17010001      1004202100000000500000010000 01N080321    00000000000000000000000000000000000000000000000000000000000000002864379109José Luis de Alencar                    Qs 12 Conjunto 2A Casa 14                           71825-202                                                            000001
100000000000000001235 0007642800000000ALIANCA QUITACAO E NEGOCI000000000000000020000       000                 17010002      1005202100000000500000010000 01N080321    00000000000000000000000000000000000000000000000000000000000000002864379109José Luis de Alencar                    Qs 12 Conjunto 2A Casa 14                           71825-202                                                            000002
100000000000000001235 0007642800000000ALIANCA QUITACAO E NEGOCI000000000000000030000       000                 17010003      1006202100000000500000010000 01N080321    00000000000000000000000000000000000000000000000000000000000000002864379109José Luis de Alencar                    Qs 12 Conjunto 2A Casa 14                           71825-202                                                            000003
100000000000000001235 0007642800000000ALIANCA QUITACAO E NEGOCI000000000000000040000       000                 17010004      1007202100000000500000010000 01N080321    00000000000000000000000000000000000000000000000000000000000000002864379109José Luis de Alencar                    Qs 12 Conjunto 2A Casa 14                           71825-202                                                            000004
100000000000000001235 0007642800000000ALIANCA QUITACAO E NEGOCI000000000000000050000       000                 17010005      1008202100000000500000010000 01N080321    00000000000000000000000000000000000000000000000000000000000000002864379109José Luis de Alencar                    Qs 12 Conjunto 2A Casa 14                           71825-202                                                            000005